{
  "contractName": "Greeter",
  "abi": [
    {
      "anonymous": false,
      "inputs": [
        {
          "indexed": true,
          "internalType": "address",
          "name": "_from",
          "type": "address"
        },
        {
          "indexed": false,
          "internalType": "string",
          "name": "_msg",
          "type": "string"
        }
      ],
      "name": "Tweet",
      "type": "event"
    },
    {
      "inputs": [],
      "name": "hello",
      "outputs": [
        {
          "internalType": "string",
          "name": "",
          "type": "string"
        }
      ],
      "stateMutability": "view",
      "type": "function",
      "constant": true
    },
    {
      "inputs": [
        {
          "internalType": "string",
          "name": "_tweet",
          "type": "string"
        }
      ],
      "name": "tweet",
      "outputs": [],
      "stateMutability": "nonpayable",
      "type": "function"
    }
  ],
  "bytecode": "0x608060405234801561001057600080fd5b506107fe806100206000396000f3fe608060405234801561001057600080fd5b50600436106100365760003560e01c806319ff1d211461003b578063fb46d4c514610059575b600080fd5b610043610075565b60405161005091906103df565b60405180910390f35b610073600480360381019061006e919061054a565b6100c2565b005b6060600061009a3373ffffffffffffffffffffffffffffffffffffffff166014610113565b9050806040516020016100ad919061061b565b60405160208183030381529060405291505090565b3373ffffffffffffffffffffffffffffffffffffffff167f0ebcb6a41099f35631f7127e0cf7c4cca0827006f36510148aba27fbd4932ceb8260405161010891906103df565b60405180910390a250565b6060600060028360026101269190610676565b61013091906106d0565b67ffffffffffffffff8111156101495761014861041f565b5b6040519080825280601f01601f19166020018201604052801561017b5781602001600182028036833780820191505090505b5090507f3000000000000000000000000000000000000000000000000000000000000000816000815181106101b3576101b2610704565b5b60200101907effffffffffffffffffffffffffffffffffffffffffffffffffffffffffffff1916908160001a9053507f78000000000000000000000000000000000000000000000000000000000000008160018151811061021757610216610704565b5b60200101907effffffffffffffffffffffffffffffffffffffffffffffffffffffffffffff1916908160001a905350600060018460026102579190610676565b61026191906106d0565b90505b6001811115610301577f3031323334353637383961626364656600000000000000000000000000000000600f8616601081106102a3576102a2610704565b5b1a60f81b8282815181106102ba576102b9610704565b5b60200101907effffffffffffffffffffffffffffffffffffffffffffffffffffffffffffff1916908160001a905350600485901c9450806102fa90610733565b9050610264565b5060008414610345576040517f08c379a000000000000000000000000000000000000000000000000000000000815260040161033c906107a8565b60405180910390fd5b8091505092915050565b600081519050919050565b600082825260208201905092915050565b60005b8381101561038957808201518184015260208101905061036e565b60008484015250505050565b6000601f19601f8301169050919050565b60006103b18261034f565b6103bb818561035a565b93506103cb81856020860161036b565b6103d481610395565b840191505092915050565b600060208201905081810360008301526103f981846103a6565b905092915050565b6000604051905090565b600080fd5b600080fd5b600080fd5b600080fd5b7f4e487b7100000000000000000000000000000000000000000000000000000000600052604160045260246000fd5b61045782610395565b810181811067ffffffffffffffff821117156104765761047561041f565b5b80604052505050565b6000610489610401565b9050610495828261044e565b919050565b600067ffffffffffffffff8211156104b5576104b461041f565b5b6104be82610395565b9050602081019050919050565b82818337600083830152505050565b60006104ed6104e88461049a565b61047f565b9050828152602081018484840111156105095761050861041a565b5b6105148482856104cb565b509392505050565b600082601f83011261053157610530610415565b5b81356105418482602086016104da565b91505092915050565b6000602082840312156105605761055f61040b565b5b600082013567ffffffffffffffff81111561057e5761057d610410565b5b61058a8482850161051c565b91505092915050565b600081905092915050565b7f4869212000000000000000000000000000000000000000000000000000000000600082015250565b60006105d4600483610593565b91506105df8261059e565b600482019050919050565b60006105f58261034f565b6105ff8185610593565b935061060f81856020860161036b565b80840191505092915050565b6000610626826105c7565b915061063282846105ea565b915081905092915050565b6000819050919050565b7f4e487b7100000000000000000000000000000000000000000000000000000000600052601160045260246000fd5b60006106818261063d565b915061068c8361063d565b9250817fffffffffffffffffffffffffffffffffffffffffffffffffffffffffffffffff04831182151516156106c5576106c4610647565b5b828202905092915050565b60006106db8261063d565b91506106e68361063d565b92508282019050808211156106fe576106fd610647565b5b92915050565b7f4e487b7100000000000000000000000000000000000000000000000000000000600052603260045260246000fd5b600061073e8261063d565b91506000820361075157610750610647565b5b600182039050919050565b7f537472696e67733a20686578206c656e67746820696e73756666696369656e74600082015250565b600061079260208361035a565b915061079d8261075c565b602082019050919050565b600060208201905081810360008301526107c181610785565b905091905056fea2646970667358221220ecf4d6d8baafe40b0c4502e71c73ae35a726c667f0490344b7c71d54dafc235464736f6c63430008100033",
  "immutableReferences": {},
  "source": "// SPDX-License-Identifier: MIT\npragma solidity >=0.8.0 <0.9.0;\n\nimport \"@openzeppelin/contracts/utils/Strings.sol\";\n\ncontract Greeter {\n    using Strings for uint256;\n\n    event Tweet(address indexed _from, string _msg);\n\n    function hello() public view returns (string memory) {\n        string memory sender = Strings.toHexString(\n            uint256(uint160(msg.sender)),\n            20\n        );\n        return string(abi.encodePacked(\"Hi! \", sender));\n    }\n\n    function tweet(string memory _tweet) public {\n        emit Tweet(msg.sender, _tweet);\n    }\n}\n",
  "sourcePath": "/Users/takenoko/Develop/nextjs-web3/contract/contracts/Greeter.sol",
  "compiler": {
    "name": "solc",
    "version": "0.8.16+commit.07a7930e.Emscripten.clang"
  },
  "schemaVersion": "3.4.9",
  "updatedAt": "2022-08-13T09:42:13.672Z",
  "networkType": "ethereum",
  "devdoc": {
    "kind": "dev",
    "methods": {},
    "version": 1
  },
  "userdoc": {
    "kind": "user",
    "methods": {},
    "version": 1
  }
}